:100000000C946B000C9488000C9488000C9488006D
:100010000C9488000C9488000C9488000C94880040
:100020000C9488000C9488000C9488000C94880030
:100030000C9488000C9488000C9488000C94880020
:100040000C9488000C9488000C9488000C94880010
:100050000C94880007634236B79BD8A71A396856B4
:1000600018AEBAAB558C1D3CB7CC5763BD6DEDFDDA
:10007000753EF6177231BF000000803F0800000097
:10008000BE922449123EABAAAA2ABECDCCCC4C3E8D
:1000900000000080BEABAAAAAA3E00000000BF007C
:1000A0000000803F0000000000084178D3BB438778
:1000B000D1133D190E3CC3BD4282AD2B3E68EC828C
:1000C00076BED98FE1A93E4C80EFFFBE01C4FF7F11
:1000D0003F000000000011241FBECFE5D8E0DEBFC6
:1000E000CDBF10E0A0E6B0E0E8E3FEE102C005907D
:1000F0000D92A23BB107D9F710E0A2EBB0E001C02E
:100100001D92A63BB107E1F70E94990B0C941A0FC0
:100110000C940000863309F477C18733C0F482332E
:1001200009F464C0833360F4803309F4E7C2813397
:1001300038F5833209F418C38A3209F07FC3A8C2A4
:10014000843309F4F5C0853308F028C185C08134B3
:1001500009F4B8C0823450F4883309F4F7C1883305
:1001600008F4BEC1893309F069C326C2833409F497
:1001700059C2833408F47EC1843409F05FC329C3B3
:1001800083E060E040E00E94D70483E064E041E067
:100190000E94D70483E064E041E00E94450583E0CB
:1001A00065E041E00E94D70483E065E040E00E9402
:1001B000450583E066E041E00E94D70483E066E005
:1001C00040E00E94450583E067E041E00E94D704DB
:1001D00083E067E040E00E94450583E060E00E9424
:1001E0002106813009F02AC381E3089583E060E0AD
:1001F00040E00E94D70483E064E041E00E94D7041D
:1002000083E064E040E00E94450583E065E041E072
:100210000E94D70483E065E041E00E94450583E049
:1002200066E041E00E94D70483E066E040E00E947F
:10023000450583E067E041E00E94D70483E067E082
:1002400040E00E94450583E060E00E942106813085
:1002500009F0F4C282E3089583E060E040E00E9488
:10026000D70483E064E041E00E94D70483E064E0C7
:1002700040E00E94450583E065E041E00E94D7042C
:1002800083E065E040E00E94450583E066E041E0F0
:100290000E94D70483E066E041E00E94450583E0C8
:1002A00067E041E00E94D70483E067E040E00E94FD
:1002B000450583E060E00E942106813009F0BEC25E
:1002C00083E3089583E060E040E00E94D70483E088
:1002D00064E041E00E94D70483E064E040E00E94D3
:1002E000450583E065E041E00E94D70483E065E0D6
:1002F00040E00E94450583E066E041E00E94D704AB
:1003000083E066E040E00E94450583E067E041E06D
:100310000E94D70483E067E041E00E94450583E046
:1003200060E00E942106813009F088C281E40895CE
:1003300083E061E040E00E94D70483E064E041E0B4
:100340000E94D70483E064E041E00E94450583E019
:1003500065E041E00E94D70483E065E040E00E9450
:10036000450583E066E041E00E94D70483E066E053
:1003700040E00E94450583E067E041E00E94D70429
:1003800083E067E040E00E94450583E061E00E9471
:100390002106813009F052C284E3089583E061E0D0
:1003A00040E00E94D70483E064E041E00E94D7046B
:1003B00083E064E040E00E94450583E065E041E0C1
:1003C0000E94D70483E065E041E00E94450583E098
:1003D00066E041E00E94D70483E066E040E00E94CE
:1003E000450583E067E041E00E94D70483E067E0D1
:1003F00040E00E94450583E061E00E9421068130D3
:1004000009F01CC285E3089583E061E040E00E94AA
:10041000D70483E064E041E00E94D70483E064E015
:1004200040E00E94450583E065E041E00E94D7047A
:1004300083E065E040E00E94450583E066E041E03E
:100440000E94D70483E066E041E00E94450583E016
:1004500067E041E00E94D70483E067E040E00E944B
:10046000450583E061E00E942106813009F0E6C184
:1004700086E3089583E061E040E00E94D70483E0D2
:1004800064E041E00E94D70483E064E040E00E9421
:10049000450583E065E041E00E94D70483E065E024
:1004A00040E00E94450583E066E041E00E94D704F9
:1004B00083E066E040E00E94450583E067E041E0BC
:1004C0000E94D70483E067E041E00E94450583E095
:1004D00061E00E942106813009F0B0C182E40895F4
:1004E00083E062E040E00E94D70483E064E041E002
:1004F0000E94D70483E064E041E00E94450583E068
:1005000065E041E00E94D70483E065E040E00E949E
:10051000450583E066E041E00E94D70483E066E0A1
:1005200040E00E94450583E067E041E00E94D70477
:1005300083E067E040E00E94450583E062E00E94BE
:100540002106813009F07AC187E3089583E062E0F3
:1005500040E00E94D70483E064E041E00E94D704B9
:1005600083E064E040E00E94450583E065E041E00F
:100570000E94D70483E065E041E00E94450583E0E6
:1005800066E041E00E94D70483E066E040E00E941C
:10059000450583E067E041E00E94D70483E067E01F
:1005A00040E00E94450583E062E00E942106813020
:1005B00009F044C188E3089583E062E040E00E94CE
:1005C000D70483E064E041E00E94D70483E064E064
:1005D00040E00E94450583E065E041E00E94D704C9
:1005E00083E065E040E00E94450583E066E041E08D
:1005F0000E94D70483E066E041E00E94450583E065
:1006000067E041E00E94D70483E067E040E00E9499
:10061000450583E062E00E942106813009F00EC1A9
:1006200089E3089583E062E040E00E94D70483E01C
:1006300064E041E00E94D70483E064E040E00E946F
:10064000450583E065E041E00E94D70483E065E072
:1006500040E00E94450583E066E041E00E94D70447
:1006600083E066E040E00E94450583E067E041E00A
:100670000E94D70483E067E041E00E94450583E0E3
:1006800062E00E942106813009F0D8C083E4089519
:1006900083E063E040E00E94D70483E064E041E04F
:1006A0000E94D70483E064E041E00E94450583E0B6
:1006B00065E041E00E94D70483E065E040E00E94ED
:1006C000450583E066E041E00E94D70483E066E0F0
:1006D00040E00E94450583E067E041E00E94D704C6
:1006E00083E067E040E00E94450583E063E00E940C
:1006F0002106813009F0A2C08AE2089583E063E018
:1007000040E00E94D70483E064E041E00E94D70407
:1007100083E064E040E00E94450583E065E041E05D
:100720000E94D70483E065E041E00E94450583E034
:1007300066E041E00E94D70483E066E040E00E946A
:10074000450583E067E041E00E94D70483E067E06D
:1007500040E00E94450583E063E00E94210681306D
:1007600009F06CC080E3089583E063E040E00E94FC
:10077000D70483E064E041E00E94D70483E064E0B2
:1007800040E00E94450583E065E041E00E94D70417
:1007900083E065E040E00E94450583E066E041E0DB
:1007A0000E94D70483E066E041E00E94450583E0B3
:1007B00067E041E00E94D70483E067E040E00E94E8
:1007C000450583E063E00E9421068130B9F583E2AC
:1007D000089583E063E040E00E94D70483E064E092
:1007E00041E00E94D70483E064E040E00E944505B8
:1007F00083E065E041E00E94D70483E065E040E0EB
:100800000E94450583E066E041E00E94D70483E052
:1008100066E040E00E94450583E067E041E00E9419
:10082000D70483E067E041E00E94450583E063E090
:100830000E942106813011F484E4089580E0089537
:100840008091B2008F5F8093B2008C3314F01092CD
:10085000B20008958091B20081508093B20087FF6A
:1008600003C08BE38093B20008958091B3008F5F43
:100870008093B300883114F01092B30008958091F2
:10088000B30081508093B30087FF03C087E180935A
:10089000B30008950F931F938091B200992787FDAD
:1008A000909562E00E94180A00E911E0C8010197E2
:1008B000F1F78091B300992787FD909560E00E9441
:1008C000180AC8010197F1F71F910F9108950F932E
:1008D0001F938091B2008F5F8093B2008C335CF0E5
:1008E0001092B2008091B3008F5F8093B300883183
:1008F00014F01092B3008091B200992787FD909573
:1009000062E00E94180A00E911E0C8010197F1F7BE
:100910008091B300992787FD909560E00E94180AA6
:10092000C8010197F1F780EF9AE00197F1F71F9165
:100930000F9108950F931F93FC0180818F5F808337
:100940008C3380F010828091B3008F5F8093B3006E
:1009500088311CF01092B30005C087FF03C087E107
:100960008093B300808190E062E00E94180A00E268
:1009700013E0C8010197F1F78091B300992787FD33
:10098000909560E00E94180AC8010197F1F71F9145
:100990000F910895FC0180818F5F8083883108F07A
:1009A0001082808190E060E00E94180A08958130F2
:1009B00009F1813030F08230B1F1833009F064C048
:1009C0004BC0413059F42AB381E090E002C0880F57
:1009D000991F6A95E2F7282B2ABB08952AB381E074
:1009E00090E002C0880F991F6A95E2F780958223F4
:1009F0008ABB0895413059F427B381E090E002C0EA
:100A0000880F991F6A95E2F7282B27BB089527B313
:100A100081E090E002C0880F991F6A95E2F7809507
:100A2000822387BB0895413059F424B381E090E0DC
:100A300002C0880F991F6A95E2F7282B24BB0895FE
:100A400024B381E090E002C0880F991F6A95E2F715
:100A50008095822384BB0895413059F421B381E00D
:100A600090E002C0880F991F6A95E2F7282B21BBFE
:100A7000089521B381E090E002C0880F991F6A9524
:100A8000E2F78095822381BB0895813009F181309E
:100A900030F08230B1F1833009F064C04BC0413096
:100AA00059F42BB381E090E002C0880F991F6A953A
:100AB000E2F7282B2BBB08952BB381E090E002C016
:100AC000880F991F6A95E2F7809582238BBB089562
:100AD000413059F428B381E090E002C0880F991F9B
:100AE0006A95E2F7282B28BB089528B381E090E0AF
:100AF00002C0880F991F6A95E2F78095822388BB10
:100B00000895413059F425B381E090E002C0880F88
:100B1000991F6A95E2F7282B25BB089525B381E03C
:100B200090E002C0880F991F6A95E2F780958223B2
:100B300085BB0895413059F422B381E090E002C0B2
:100B4000880F991F6A95E2F7282B22BB089522B3DC
:100B500081E090E002C0880F991F6A95E2F78095C6
:100B6000822382BB0895813009F1813030F08230D8
:100B7000B1F1833009F064C04BC0413059F42BB35C
:100B800081E090E002C0880F991F6A95E2F7282B58
:100B90002BBB08952BB381E090E002C0880F991F12
:100BA0006A95E2F7809582238BBB0895413059F412
:100BB00028B381E090E002C0880F991F6A95E2F7A0
:100BC000282B28BB089528B381E090E002C0880F4D
:100BD000991F6A95E2F78095822388BB0895442384
:100BE00059F425B381E090E002C0880F991F6A95FF
:100BF000E2F7282B25BB089525B381E090E002C0E1
:100C0000880F991F6A95E2F78095822385BB089526
:100C1000413059F422B381E090E002C0880F991F5F
:100C20006A95E2F7282B22BB089522B381E090E079
:100C300002C0880F991F6A95E2F78095822382BBD4
:100C40000895813051F0813030F0823041F08330AE
:100C500079F080E0089589B303C086B301C083B3FF
:100C600090E002C0959587956A95E2F781700895A6
:100C700080B390E002C0959587956A95E2F7817000
:100C8000089580E067E041E00E94450585E08A958F
:100C9000F1F780E067E040E00E94450580E293E0E4
:100CA0000197F1F708951F93182F482F4595459503
:100CB00045954595417082E062E00E944505412FCF
:100CC00045954595459545954595417082E063E08C
:100CD0000E944505412F46FB440F440B40F94170EB
:100CE00082E064E00E944505412F441F4427441FD1
:100CF00082E065E00E94450580E060E041E00E94FE
:100D000045050E944106412F417082E062E00E9449
:100D10004505412F4595417082E063E00E944505FD
:100D200015951595412F417082E064E00E944505BC
:100D30001595117082E065E0412F0E9445050E94E3
:100D400041061F910895EF92FF921F93CF93DF9377
:100D5000EC0110E080EAE82E8FE0F82E06C00E9439
:100D60005306C7010197F1F71F5FFE01E10FF11D67
:100D700080818823A1F7DF91CF911F91FF90EF90A1
:100D800008950F931F938C01AC01F4E0569547959D
:100D9000FA95E1F7417082E062E00E944505A80102
:100DA000E5E056954795EA95E1F7417082E063E00A
:100DB0000E944505A80176E0569547957A95E1F79A
:100DC000417082E064E00E944505A801440F452F70
:100DD000441F550B5195417082E065E00E94450526
:100DE00080E060E040E00E9445050E944106402FFF
:100DF000417082E062E00E94450516950795402FFC
:100E0000417082E063E00E94450516950795402FEA
:100E1000417082E064E00E944505169507950170D7
:100E200082E065E0402F0E9445050E9441061F9127
:100E30000F910895813061F0813028F0823069F09F
:100E40008330C1F411C0862F90E080589F4F09C0B5
:100E5000862F90E080549F4F04C0862F90E08C56E0
:100E60009F4F0E94C1060895862F90E08C529F4F9D
:100E70000E94C10608950F931F9380E060E041E057
:100E80000E94D70480E067E041E00E94D70482E03E
:100E900062E041E00E94D70482E063E041E00E940A
:100EA000D70482E064E041E00E94D70482E065E07C
:100EB00041E00E94D70482E090E00E94C10600E970
:100EC00011E0C8010197F1F788E290E00E94C106A5
:100ED000C8010197F1F78CE090E00E94C106C801BB
:100EE0000197F1F71F910F910895823069F08330D7
:100EF00018F48130B9F405C0833079F0843091F46E
:100F000006C081E067E005C080E064E002C080E0E8
:100F100066E040E00E944505089580E065E040E01D
:100F20000E94450508951F931091B10004C0812FC0
:100F30000E94750711501123D1F71F910895823037
:100F400069F0833018F48130B9F405C0833079F04A
:100F5000843091F406C081E067E005C080E064E081
:100F600002C080E066E041E00E944505089580E00F
:100F700065E041E00E9445050895CF92DF92EF922F
:100F8000FF920F931F93DF93CF93CDB7DEB72897D0
:100F90000FB6F894DEBF0FBECDBF80E060E00E94C8
:100FA0001A0780E690E00E94A3068091A700909126
:100FB000A800A091A900B091AA0089839A83AB836D
:100FC000BC838091AC009091AD00A091AE00B09137
:100FD000AF008D839E83AF83B88781E060E00E947D
:100FE0001A0710E06E010894C11CD11C80E9E82E9C
:100FF00081E0F82E0E946608082F882341F08AE2DB
:101000000E945306F601E10FF11D00831F5F88EB7C
:101010009BE0F7013197F1F70197D9F7143050F3BE
:1010200020E030E0BE016F5F7F4FAE014B5F5F4F4E
:10103000122FFB01E20FF31FDA01A20FB31F908101
:101040008C91981731F41F5F2F5F3F4F243031058B
:1010500079F781E090E00E94C106143088F480E0C6
:1010600060E00E941A0782E790E00E94A30681E0F8
:1010700060E00E941A0785E890E00E94A30617C06E
:101080001430A9F480E060E00E941A0786E990E03D
:101090000E94A3060E94EF0A80E593EC20E931E06C
:1010A000F9013197F1F70197D9F70E94D20A2896F2
:1010B0000FB6F894DEBF0FBECDBFCF91DF911F9169
:1010C0000F91FF90EF90DF90CF900895DF93CF9333
:1010D0000F92CDB7DEB781E30E948A0089838981B0
:1010E000813309F471C082E30E948A008983898177
:1010F000823309F469C083E30E948A00898389816D
:10110000833309F461C081E40E948A008983898164
:10111000813409F459C084E30E948A00898389815B
:10112000843309F451C085E30E948A008983898150
:10113000853309F449C086E30E948A008983898146
:10114000863309F441C082E40E948A008983898140
:101150008234D1F187E30E948A00898389818733B1
:1011600099F188E30E948A0089838981883361F13B
:1011700089E30E948A0089838981893329F183E484
:101180000E948A00898389818334F1F08AE20E9477
:101190008A00898389818A32B9F080E30E948A00BB
:1011A00089838981803381F083E20E948A00898368
:1011B0008981833249F084E40E948A00898389818D
:1011C000843411F080E001C089810F90CF91DF91CC
:1011D00008958091B4009091B50001969093B50068
:1011E0008093B4008436910520F01092B5001092DF
:1011F000B40008958091B4009091B5000197909348
:10120000B5008093B40008950F931F93082F162FF5
:1012100080E063E041E00E94450580E062E041E05B
:101220000E94450581E065E041E00E94450581E0BE
:1012300066E041E00E944505023069F0033018F491
:101240000130A1F405C0033049F0043079F409C03D
:1012500080E063E008C080E062E005C081E065E016
:1012600002C081E066E040E00E9445051430E9F1EB
:10127000153050F41130F1F01130C0F0123041F15E
:10128000133009F06EC028C0173009F43FC0183081
:1012900030F4153071F1163009F063C033C01830E6
:1012A00009F447C0193009F05CC047C081E060E034
:1012B00040E003C081E060E041E00E94450581E03C
:1012C00061E040E00E94450581E062E040E02BC023
:1012D00081E060E040E003C081E060E041E00E9426
:1012E000450581E061E041E0EDCF81E060E040E074
:1012F00003C081E060E041E00E94450581E061E0DB
:1013000040E00CC081E060E040E003C081E060E0CC
:1013100041E00E94450581E061E041E00E94450511
:1013200081E062E041E00E94450581E064E040E048
:1013300016C081E060E040E003C081E060E041E091
:101340000E94450581E061E040E00E94450581E0A2
:1013500062E040E00E94450581E064E041E00E94D7
:1013600045051F910F910895823091F0833018F454
:10137000813059F505C0833099F0843031F51BC0B8
:1013800080E063E041E00E94450580E063E00FC03B
:1013900080E062E041E00E94450580E062E007C035
:1013A00081E065E041E00E94450581E065E040E0C4
:1013B0000E94D704089581E066E041E00E9445055F
:1013C00081E066E040E00E94D70408951F93182F43
:1013D00081E060E041E00E94D70481E061E041E00B
:1013E0000E94D70481E062E041E00E94D70481E0DE
:1013F00064E041E00E94D704123069F0133018F421
:101400001130A1F405C0133049F0143079F409C04B
:1014100080E063E008C080E062E005C081E065E054
:1014200002C081E066E041E00E94D7041F91089568
:101430002F923F924F925F926F927F928F929F92E4
:10144000AF92BF92CF92DF92EF92FF920F931F93D2
:10145000CF93DF93EC01562E11E0812F0E94E60915
:101460001F5F1530D1F7CA30D1050CF476C0AA241D
:101470003E01882477FC8094982C01C0A3946A2DA7
:1014800070E080E090E00E94A00C9B01AC0160E065
:1014900070E080E291E40E94B50D162F072FF82E20
:1014A000E92EC401B3010E94A20C9B01AC01612F83
:1014B000702F8F2D9E2D0E94030C1816FCF6452CC4
:1014C0005A2C5A9484E0282E312CBE01882777FDAF
:1014D0008095982F0E94A20C3B014C01652D70E075
:1014E00080E090E00E94A00C9B01AC0160E070E005
:1014F00080E291E40E94B50D5B016C01C401B3016F
:10150000A60195010E94070C0E94740C9B01AC017E
:10151000E62E4394842D622F0E940409C101019795
:10152000F1F7FF240027F7FC0095102FC801B70141
:101530000E94A20CA60195010E94520D9B01AC01D4
:10154000C401B3010E949E0B0E946F0CEB01672B3C
:1015500011F45520A1F05A94B8CF852D8F5F60E02B
:101560000E94040900E911E0C8010197F1F7852DF7
:101570008E5F6C2F0E940409C8010197F1F7DF917B
:10158000CF911F910F91FF90EF90DF90CF90BF9080
:10159000AF909F908F907F906F905F904F903F9013
:1015A0002F90089582E060E041E00E94D70482E03D
:1015B00060E041E00E94450588E697E10197F1F778
:1015C00082E060E040E00E94450580E197E220E98A
:1015D00031E0F9013197F1F70197D9F7089582E0E9
:1015E00060E041E00E94D70482E060E041E00E94B8
:1015F000450580EA9FE00197F1F782E060E040E076
:101600000E94450580E197E220E931E0F901319738
:10161000F1F70197D9F708958230D1F0833028F49B
:10162000882351F0813021F50BC08430C1F0843023
:1016300098F08530E9F417C083B78E7F83BF01C06F
:1016400083B783B78D7F83BF83B78B7F83BF10C082
:1016500083B78E7F83BF01C083B783B7F5CF83B7CE
:101660008E7F83BF01C083B783B78D7F83BF83B76E
:10167000613081F0613028F0623039F0633071F40C
:1016800009C083B78F7B83BF01C083B783B7877FD0
:1016900083BF04C083B78F7B83BF83B7413059F0CA
:1016A000413028F0423061F0433089F40EC083B7F6
:1016B0008F7E83BF01C083B783B78F7D83BF0895BB
:1016C00083B78F7E83BF83B7089583B783B70895A9
:1016D0008230B9F0833028F4882351F0813041F50D
:1016E0000BC08430C1F0843080F0853009F51BC018
:1016F00083B78E7F83BF01C083B783B78D7F83BFDE
:1017000006C083B78E7F83BF01C083B783B783B71B
:101710008B7F83BF089583B78E7F83BF83B78D7F11
:1017200083BF83B7089583B783B78D7F83BF83B7A4
:1017300008950E943B070E94BD07FDCF5058BB276C
:10174000AA270ED075C166D130F06BD120F031F4EC
:101750009F3F11F41EF45BC10EF4E095E7FB51C10D
:10176000E92F77D180F3BA176207730784079507CB
:1017700018F071F49EF58FC10EF4E0950B2EBA2F80
:10178000A02D0B01B90190010C01CA01A001112487
:10179000FF27591B99F0593F50F4503E68F11A1633
:1017A000F040A22F232F342F4427585FF3CF4695C4
:1017B00037952795A795F0405395C9F77EF41F16E6
:1017C000BA0B620B730B840BBAF09150A1F0FF0FB0
:1017D000BB1F661F771F881FC2F70EC0BA0F621F9C
:1017E000731F841F48F4879577956795B795F7958C
:1017F0009E3F08F0B3CF9395880F08F09927EE0F1E
:10180000979587950895D9D008F481E008950CD074
:101810000FC107D140F0FED030F021F45F3F19F046
:10182000F0C0511139C1F3C014D198F39923C9F311
:101830005523B1F3951B550BBB27AA2762177307D6
:10184000840738F09F5F5F4F220F331F441FAA1F8A
:10185000A9F333D00E2E3AF0E0E830D0915050404A
:10186000E695001CCAF729D0FE2F27D0660F771FF8
:10187000881FBB1F261737074807AB07B0E809F0DA
:10188000BB0B802DBF01FF2793585F4F2AF09E3F6F
:10189000510568F0B6C000C15F3FECF3983EDCF341
:1018A000869577956795B795F7959F5FC9F7880FE8
:1018B000911D9695879597F90895E1E0660F771F3A
:1018C000881FBB1F621773078407BA0720F0621BCB
:1018D000730B840BBA0BEE1F88F7E095089504D0C4
:1018E0006894B111D9C00895BCD088F09F5790F08A
:1018F000B92F9927B751A0F0D1F0660F771F881F35
:10190000991F1AF0BA95C9F712C0B13081F0C3D04F
:10191000B1E00895C0C0672F782F8827B85F39F0ED
:10192000B93FCCF3869577956795B395D9F73EF493
:1019300090958095709561957F4F8F4F9F4F08953B
:10194000E89409C097FB3EF4909580957095619559
:101950007F4F8F4F9F4F9923A9F0F92F96E9BB270F
:101960009395F695879577956795B795F111F8CF8B
:10197000FAF4BB0F11F460FF1BC06F5F7F4F8F4FF6
:101980009F4F16C0882311F096E911C0772321F0EC
:101990009EE8872F762F05C0662371F096E8862F84
:1019A00070E060E02AF09A95660F771F881FDAF7DB
:1019B000880F9695879597F90895990F0008550F08
:1019C000AA0BE0E8FEEF16161706E807F907C0F0C5
:1019D00012161306E407F50798F0621B730B840BCD
:1019E000950B39F40A2661F0232B242B252B21F4A7
:1019F00008950A2609F4A140A6958FEF811D811D47
:101A0000089597F99F6780E870E060E008959FEF80
:101A100080EC089500240A94161617061806090685
:101A2000089500240A941216130614060506089554
:101A3000092E0394000C11F4882352F0BB0F40F4DC
:101A4000BF2B11F460FF04C06F5F7F4F8F4F9F4F1C
:101A5000089557FD9058440F551F59F05F3F71F09E
:101A60004795880F97FB991F61F09F3F79F0879505
:101A70000895121613061406551FF2CF4695F1DF8E
:101A800008C0161617061806991FF1CF869571051E
:101A9000610508940895E894BB2766277727CB0152
:101AA00097F908950BD0C4CFB5DF28F0BADF18F04E
:101AB000952309F0A6CFABCF1124EECFCADFA0F358
:101AC000959FD1F3950F50E0551F629FF001729FD3
:101AD000BB27F00DB11D639FAA27F00DB11DAA1FF2
:101AE000649F6627B00DA11D661F829F2227B00D3F
:101AF000A11D621F739FB00DA11D621F839FA00DCA
:101B0000611D221F749F3327A00D611D231F849F19
:101B1000600D211D822F762F6A2F11249F57504070
:101B20008AF0E1F088234AF0EE0FFF1FBB1F661F0B
:101B3000771F881F91505040A9F79E3F510570F0C4
:101B400060CFAACF5F3FECF3983EDCF386957795A4
:101B50006795B795F795E7959F5FC1F7FE2B880FBF
:101B6000911D9695879597F90895FA01EE0FFF1F3D
:101B700030962105310599F16115710561F48038C0
:101B8000BFE39B0749F168949038810561F0803884
:101B9000BFEF9B0741F0992342F5FF3FE105310577
:101BA000210511F1E8940894E795D901AA2329F4B5
:101BB000AB2FBE2FF85FD0F310C0FF5F70F4A69577
:101BC000E0F7F73950F019F0FF3A38F49F779F9318
:101BD0000CD00F9007FC905808953EF018CF60E0AD
:101BE00070E080E89FE308954FE79F775F934F93FE
:101BF0003F932F939ED02F913F914F915F9152DF52
:101C000005C019F40EF0FDCE46CF01CF2ADFC8F390
:101C10009638C0F707F80F92E8942BE33AEA48EBBE
:101C20005FE74EDF0F920F920F924DB75EB70F92A4
:101C3000C0D0E4E5F0E016D04F915F91EF91FF91B5
:101C4000E595EE1FFF1F49F0FE57E0684427EE0FB1
:101C5000441FFA95E1F74195550B32D00F9007FEDE
:101C600026C00895DF93CF931F930F93FF92EF92B7
:101C7000DF927B018C01689405C0DA2EEF011EDF34
:101C8000FE01E894A5912591359145915591AEF3CA
:101C9000EF0166DDFE019701A801DA9479F7DF9084
:101CA000EF90FF900F911F91CF91DF9108959B01CD
:101CB000AC0160E070E080E89FE3A9CDA2CEACC0AB
:101CC000D0DEE8F39923D9F3940F511DBBF3915063
:101CD000504094F059F0882332F0660F771F881F28
:101CE00091505040C1F79E3F510544F7880F911D18
:101CF0009695879597F908955F3FACF0983E9CF0D4
:101D0000BB27869577956795B79508F4B16093954D
:101D1000C1F7BB0F58F711F460FFE8CF6F5F7F4F3B
:101D20008F4F9F4FE3CFB8CE0EF076C070CE689441
:101D300068CE97DEC8F39923D1F3C6F3DF93CF9330
:101D40001F930F93FF92C92FDD2788232AF0219735
:101D5000660F771F881FDAF720E030E040E85FEB7E
:101D60009FE3883920F0803E30F021968F77E7DCC2
:101D7000ECE7F0E003C0E3DCE9EAF0E073DF8B01BD
:101D8000BE01EC01FB2E6F5771097595771F880B0B
:101D9000990BD8DD28E132E741E35FE38FDEAF2D19
:101DA0009801AE01FF900F911F91CF91DF91D8DC88
:101DB0003FCEFA01DC01AA0FBB1F9B01AC01BF574C
:101DC00028F422273327442750781FC0B75188F4BE
:101DD000AB2F0024469537952795011CA395D2F388
:101DE000002069F0220F331F441FB395DAF30DD0A2
:101DF000A5CC61307105A0E88A07B94630F49B0193
:101E0000AC016627772788279078309621F02083C9
:101E100031834283538308959F3F31F0915020F4E2
:101E2000879577956795B795880F911D96958795B6
:081E300097F90895F894FFCF23
:101E3800506C6561736520656E746572207061739E
:101E4800730050617373776F726420696E636F7289
:101E58007265637400506C656173652074727920D3
:101E6800616761696E0050617373776F7264206394
:101E78006F72726563740030303030003433323141
:021E8800000454
:00000001FF
